:0100000003FC
:0100010000FE
:0100020000FD
:0100030000FC
:0100040003F8
:0100050003F7
:0100060000F9
:0100070001F7
:0100080000F7
:0100090001F5
:01000A0003F2
:01000B0000F4
:01000C0003F0
:01000D0001F1
:01000E0000F1
:01000F0001EF
:0100100003EC
:0100110001ED
:0100120000ED
:0100130001EB
:0100140000EB
:0100150000EA
:0100160000E9
:0100170003E5
:0100180003E4
:0100190001E5
:01001A0003E2
:01001B0003E1
:01001C0001E2
:01001D0001E1
:01001E0001E0
:01001F0000E0
:0100200001DE
:0100210001DD
:0100220001DC
:0100230001DB
:0100240001DA
:0100250003D7
:0100260000D9
:0100270001D7
:0100280001D6
:0100290000D6
:01002A0001D4
:01002B0000D4
:01002C0001D2
:01002D0003CF
:01002E0001D0
:01002F0001CF
:0100300000CF
:0100310000CE
:0100320003CA
:0100330003C9
:0100340000CB
:0100350000CA
:0100360001C8
:0100370003C5
:0100380003C4
:0100390001C5
:01003A0003C2
:01003B0003C1
:01003C0000C3
:01003D0001C1
:01003E0001C0
:01003F0000C0
:0100400003BC
:0100410001BD
:0100420003BA
:0100430000BC
:0100440000BB
:0100450001B9
:0100460000B9
:0100470001B7
:0100480001B6
:0100490003B3
:01004A0001B4
:01004B0001B3
:01004C0000B3
:01004D0001B1
:01004E0003AE
:01004F0001AF
:0100500001AE
:0100510001AD
:0100520003AA
:0100530000AC
:0100540003A8
:0100550000AA
:0100560001A8
:0100570003A5
:0100580001A6
:0100590001A5
:01005A0001A4
:01005B0000A4
:01005C0001A2
:01005D0001A1
:01005E0001A0
:01005F00019F
:01006000019E
:01006100039B
:01006200039A
:01006300009C
:01006400009B
:010065000199
:010066000396
:010067000395
:010068000097
:010069000195
:01006A000392
:01006B000193
:01006C000390
:01006D000092
:01006E000091
:01006F00038D
:01007000008F
:01007100038B
:01007200038A
:01007300018B
:01007400008B
:01007500008A
:010076000089
:010077000385
:010078000186
:010079000086
:01007A000085
:01007B000183
:01007C000380
:01007D00037F
:01007E000180
:01007F00017F
:01008000037C
:01008100007E
:01008200017C
:01008300007C
:01008400017A
:010085000179
:010086000079
:010087000078
:010088000374
:010089000175
:01008A000174
:01008B000173
:01008C000073
:01008D000072
:01008E000170
:01008F00016F
:01009000036C
:01009100016D
:01009200016C
:01009300006C
:010094000368
:010095000367
:010096000366
:010097000167
:010098000364
:010099000363
:01009A000065
:01009B000163
:01009C000360
:01009D000161
:01009E00035E
:01009F000060
:0100A000005F
:0100A100005E
:0100A200005D
:0100A300015B
:0100A400015A
:0100A5000159
:0100A6000059
:0100A7000058
:0100A8000354
:0100A9000155
:0100AA000154
:0100AB000054
:0100AC000350
:0100AD00034F
:0100AE00034E
:0100AF00014F
:0100B000034C
:0100B100034B
:0100B200004D
:0100B300004C
:0100B4000348
:0100B5000149
:0100B6000148
:0100B7000345
:0100B8000344
:0100B9000343
:0100BA000144
:0100BB000341
:0100BC000142
:0100BD000042
:0100BE000041
:0100BF000040
:0100C000013E
:0100C100003E
:0100C200003D
:0100C300003C
:0100C4000338
:0100C5000337
:0100C6000336
:0100C7000335
:0100C8000334
:0100C9000333
:0100CA000035
:0100CB000331
:0100CC000132
:0100CD000032
:0100CE000031
:0100CF00032D
:0100D000032C
:0100D100002E
:0100D200012C
:0100D3000329
:0100D400002B
:0100D500002A
:0100D6000029
:0100D7000028
:0100D8000126
:0100D9000125
:0100DA000124
:0100DB000321
:0100DC000122
:0100DD000022
:0100DE000021
:0100DF000020
:0100E000001F
:0100E100001E
:0100E200031A
:0100E300001C
:0100E400011A
:0100E5000119
:0100E6000019
:0100E7000117
:0100E8000017
:0100E9000016
:0100EA000114
:0100EB000014
:0100EC000310
:0100ED000111
:0100EE00030E
:0100EF00030D
:0100F000030C
:0100F100010D
:0100F200030A
:0100F3000309
:0100F400000B
:0100F5000109
:0100F6000306
:0100F7000008
:0100F8000106
:0100F9000105
:0100FA000302
:0100FB000103
:0100FC000300
:0100FD000101
:0100FE0003FE
:0100FF0001FF
:0101000001FD
:0101010000FD
:0101020001FB
:0101030003F8
:0101040001F9
:0101050001F8
:0101060003F5
:0101070000F7
:0101080003F3
:0101090000F5
:01010A0001F3
:01010B0003F0
:01010C0001F1
:01010D0001F0
:01010E0000F0
:01010F0001EE
:0101100003EB
:0101110003EA
:0101120003E9
:0101130000EB
:0101140001E9
:0101150000E9
:0101160001E7
:0101170003E4
:0101180000E6
:0101190003E2
:01011A0001E3
:01011B0003E0
:01011C0000E2
:01011D0000E1
:01011E0000E0
:01011F0000DF
:0101200003DB
:0101210000DD
:0101220000DC
:0101230000DB
:0101240000DA
:0101250000D9
:0101260001D7
:0101270001D6
:0101280000D6
:0101290000D5
:01012A0000D4
:01012B0001D2
:01012C0000D2
:01012D0001D0
:01012E0001CF
:01012F0000CF
:0101300003CB
:0101310003CA
:0101320000CC
:0101330001CA
:0101340001C9
:0101350001C8
:0101360003C5
:0101370003C4
:0101380001C5
:0101390000C5
:01013A0000C4
:01013B0001C2
:01013C0000C2
:01013D0000C1
:01013E0001BF
:01013F0000BF
:0101400003BB
:0101410000BD
:0101420000BC
:0101430000BB
:0101440000BA
:0101450003B6
:0101460003B5
:0101470001B6
:0101480000B6
:0101490001B4
:01014A0001B3
:01014B0003B0
:01014C0001B1
:01014D0003AE
:01014E0003AD
:01014F0003AC
:0101500001AD
:0101510000AD
:0101520003A9
:0101530000AB
:0101540000AA
:0101550001A8
:0101560003A5
:0101570001A6
:0101580000A6
:0101590000A5
:01015A0003A1
:01015B0001A2
:01015C0001A1
:01015D0001A0
:01015E00039D
:01015F00019E
:01016000039B
:01016100009D
:010162000399
:010163000398
:01016400009A
:010165000198
:010166000197
:010167000394
:010168000195
:010169000194
:01016A000391
:01016B000390
:01016C000092
:01016D000190
:01016E000090
:01016F00038C
:01017000038B
:01017100018C
:010172000389
:01017300008B
:010174000189
:010175000188
:010176000385
:010177000384
:010178000383
:010179000085
:01017A000084
:01017B000380
:01017C000082
:01017D000081
:01017E00017F
:01017F00037C
:01018000007E
:01018100017C
:01018200017B
:01018300007B
:010184000179
:010185000376
:010186000078
:010187000077
:010188000076
:010189000174
:01018A000074
:01018B000172
:01018C000072
:01018D00036E
:01018E00016F
:01018F00006F
:01019000016D
:01019100036A
:010192000369
:010193000368
:010194000367
:010195000366
:010196000365
:010197000364
:010198000165
:010199000164
:01019A000064
:01019B000162
:01019C00035F
:01019D000061
:01019E00035D
:01019F00005F
:0101A000015D
:0101A100005D
:0101A200005C
:0101A300015A
:0101A400005A
:0101A5000356
:0101A6000157
:0101A7000354
:0101A8000056
:0101A9000154
:0101AA000153
:0101AB000350
:0101AC000151
:0101AD00034E
:0101AE00034D
:0101AF00004F
:0101B000004E
:0101B100034A
:0101B200004C
:0101B300014A
:0101B400004A
:0101B5000346
:0101B6000048
:0101B7000344
:0101B8000343
:0101B9000144
:0101BA000044
:0101BB000043
:0101BC000141
:0101BD000041
:0101BE000040
:0101BF00003F
:0101C000013D
:0101C100033A
:0101C2000339
:0101C300013A
:0101C400003A
:0101C5000039
:0101C6000137
:0101C7000334
:0101C8000036
:0101C9000134
:0101CA000331
:0101CB000132
:0101CC000131
:0101CD000031
:0101CE00012F
:0101CF00032C
:0101D000012D
:0101D100012C
:0101D200012B
:0101D3000328
:0101D4000129
:0101D5000128
:0101D6000127
:0101D7000126
:0101D8000125
:0101D9000025
:0101DA000123
:0101DB000320
:0101DC00031F
:0101DD00031E
:0101DE00031D
:0101DF00031C
:0101E000031B
:0101E100031A
:0101E2000319
:0101E300001B
:0101E4000119
:0101E5000118
:0101E6000018
:0101E7000017
:0101E8000313
:0101E9000312
:0101EA000014
:0101EB000013
:0101EC00030F
:0101ED000110
:0101EE000010
:0101EF00010E
:0101F000000E
:0101F100030A
:0101F2000309
:0101F300000B
:0101F4000109
:0101F5000306
:0101F6000008
:0101F7000304
:0101F8000006
:0101F9000005
:0101FA000004
:0101FB000300
:0101FC0003FF
:0101FD0003FE
:0101FE0001FF
:0101FF0003FC
:0102000000FD
:0102010001FB
:0102020000FB
:0102030001F9
:0102040003F6
:0102050000F8
:0102060001F6
:0102070000F6
:0102080000F5
:0102090003F1
:01020A0000F3
:01020B0003EF
:01020C0001F0
:01020D0003ED
:01020E0000EF
:01020F0003EB
:0102100001EC
:0102110003E9
:0102120000EB
:0102130001E9
:0102140000E9
:0102150003E5
:0102160001E6
:0102170000E6
:0102180003E2
:0102190001E3
:01021A0000E3
:01021B0003DF
:01021C0003DE
:01021D0000E0
:01021E0001DE
:01021F0001DD
:0102200000DD
:0102210001DB
:0102220003D8
:0102230000DA
:0102240003D6
:0102250001D7
:0102260001D6
:0102270000D6
:0102280000D5
:0102290001D3
:01022A0001D2
:01022B0001D1
:01022C0003CE
:01022D0003CD
:01022E0003CC
:01022F0001CD
:0102300001CC
:0102310001CB
:0102320000CB
:0102330001C9
:0102340000C9
:0102350001C7
:0102360003C4
:0102370001C5
:0102380000C5
:0102390003C1
:01023A0003C0
:01023B0001C1
:01023C0000C1
:01023D0003BD
:01023E0001BE
:01023F0001BD
:0102400003BA
:0102410000BC
:0102420003B8
:0102430003B7
:0102440000B9
:0102450003B5
:0102460003B4
:0102470000B6
:0102480001B4
:0102490001B3
:01024A0001B2
:01024B0001B1
:01024C0003AE
:01024D0001AF
:01024E0001AE
:01024F0000AE
:0102500003AA
:0102510001AB
:0102520001AA
:0102530003A7
:0102540000A9
:0102550001A7
:0102560001A6
:0102570001A5
:0102580000A5
:0102590003A1
:01025A0000A3
:01025B0001A1
:01025C0000A1
:01025D00039D
:01025E00019E
:01025F00039B
:01026000019C
:010261000399
:01026200009B
:010263000397
:010264000396
:010265000197
:010266000196
:010267000195
:010268000392
:010269000094
:01026A000093
:01026B00038F
:01026C000091
:01026D000090
:01026E00018E
:01026F00008E
:01027000038A
:010271000389
:010272000388
:010273000189
:010274000386
:010275000088
:010276000186
:010277000383
:010278000085
:010279000183
:01027A000380
:01027B000082
:01027C000081
:01027D00037D
:01027E00017E
:01027F00007E
:01028000007D
:01028100017B
:01028200017A
:01028300007A
:010284000178
:010285000375
:010286000077
:010287000175
:010288000174
:010289000371
:01028A000073
:01028B00036F
:01028C000071
:01028D00016F
:01028E00036C
:01028F00036B
:01029000006D
:010291000369
:01029200006B
:010293000367
:010294000366
:010295000167
:010296000364
:010297000363
:010298000065
:010299000361
:01029A000360
:01029B00035F
:01029C000061
:01029D00015F
:01029E00005F
:01029F00005E
:0102A000005D
:0102A100015B
:0102A200015A
:0102A3000357
:0102A4000158
:0102A5000157
:0102A6000354
:0102A7000353
:0102A8000154
:0102A9000351
:0102AA000053
:0102AB00034F
:0102AC000150
:0102AD000050
:0102AE00034C
:0102AF00014D
:0102B000004D
:0102B100004C
:0102B2000348
:0102B3000347
:0102B4000346
:0102B5000345
:0102B6000344
:0102B7000343
:0102B8000045
:0102B9000341
:0102BA000340
:0102BB000042
:0102BC000041
:0102BD00033D
:0102BE00003F
:0102BF00033B
:0102C000013C
:0102C100013B
:0102C200003B
:0102C3000139
:0102C4000138
:0102C5000038
:0102C6000136
:0102C7000333
:0102C8000035
:0102C9000133
:0102CA000132
:0102CB000032
:0102CC00032E
:0102CD00032D
:0102CE00002F
:0102CF00012D
:0102D000032A
:0102D100012B
:0102D2000328
:0102D3000327
:0102D4000326
:0102D5000028
:0102D6000027
:0102D7000026
:0102D8000025
:0102D9000024
:0102DA000122
:0102DB000121
:0102DC00031E
:0102DD00031D
:0102DE00001F
:0102DF00011D
:0102E000001D
:0102E1000319
:0102E200001B
:0102E3000317
:0102E4000316
:0102E5000315
:0102E6000116
:0102E7000115
:0102E8000114
:0102E9000014
:0102EA000310
:0102EB00030F
:0102EC000011
:0102ED00030D
:0102EE00000F
:0102EF00000E
:0102F000010C
:0102F100000C
:0102F200000B
:0102F3000307
:0102F4000009
:0102F5000107
:0102F6000007
:0102F7000105
:0102F8000302
:0102F9000004
:0102FA000003
:0102FB0003FF
:0102FC0003FE
:0102FD0001FF
:0102FE0001FE
:0102FF0000FE
:0103000003F9
:0103010001FA
:0103020001F9
:0103030001F8
:0103040000F8
:0103050001F6
:0103060001F5
:0103070000F5
:0103080000F4
:0103090003F0
:01030A0000F2
:01030B0000F1
:01030C0003ED
:01030D0003EC
:01030E0001ED
:01030F0003EA
:0103100003E9
:0103110001EA
:0103120001E9
:0103130003E6
:0103140001E7
:0103150001E6
:0103160003E3
:0103170001E4
:0103180000E4
:0103190001E2
:01031A0001E1
:01031B0001E0
:01031C0001DF
:01031D0003DC
:01031E0001DD
:01031F0001DC
:0103200000DC
:0103210000DB
:0103220001D9
:0103230001D8
:0103240003D5
:0103250003D4
:0103260003D3
:0103270000D5
:0103280003D1
:0103290000D3
:01032A0003CF
:01032B0001D0
:01032C0000D0
:01032D0000CF
:01032E0000CE
:01032F0003CA
:0103300000CC
:0103310001CA
:0103320000CA
:0103330000C9
:0103340000C8
:0103350003C4
:0103360000C6
:0103370001C4
:0103380000C4
:0103390001C2
:01033A0001C1
:01033B0000C1
:01033C0003BD
:01033D0003BC
:01033E0003BB
:01033F0000BD
:0103400001BB
:0103410000BB
:0103420000BA
:0103430000B9
:0103440001B7
:0103450000B7
:0103460001B5
:0103470000B5
:0103480001B3
:0103490001B2
:01034A0001B1
:01034B0003AE
:01034C0000B0
:01034D0003AC
:01034E0003AB
:01034F0003AA
:0103500000AC
:0103510000AB
:0103520001A9
:0103530003A6
:0103540000A8
:0103550000A7
:0103560001A5
:0103570003A2
:0103580003A1
:0103590000A3
:01035A00039F
:01035B00039E
:01035C00019F
:01035D00009F
:01035E00009E
:01035F00039A
:01036000009C
:01036100019A
:010362000199
:010363000396
:010364000098
:010365000097
:010366000195
:010367000095
:010368000391
:010369000093
:01036A000191
:01036B00038E
:01036C00038D
:01036D00018E
:01036E00038B
:01036F00038A
:010370000389
:01037100008B
:010372000189
:010373000386
:010374000088
:010375000384
:010376000185
:010377000184
:010378000084
:010379000083
:01037A000082
:01037B00037E
:01037C00017F
:01037D00007F
:01037E00037B
:01037F00037A
:01038000007C
:010381000378
:010382000377
:010383000079
:010384000375
:010385000077
:010386000373
:010387000075
:010388000074
:010389000370
:01038A000171
:01038B000170
:01038C00036D
:01038D00006F
:01038E00006E
:01038F00036A
:01039000016B
:01039100016A
:01039200006A
:010393000069
:010394000068
:010395000364
:010396000066
:010397000164
:010398000163
:010399000360
:01039A00035F
:01039B000160
:01039C000060
:01039D00015E
:01039E00005E
:01039F00005D
:0103A000015B
:0103A100015A
:0103A200005A
:0103A3000356
:0103A4000058
:0103A5000354
:0103A6000056
:0103A7000154
:0103A8000351
:0103A9000152
:0103AA000052
:0103AB000150
:0103AC000050
:0103AD00004F
:0103AE00034B
:0103AF00014C
:0103B000004C
:0103B100004B
:0103B200004A
:0103B3000049
:0103B4000048
:0103B5000344
:0103B6000145
:0103B7000045
:0103B8000143
:0103B9000340
:0103BA000141
:0103BB000140
:0103BC00033D
:0103BD00013E
:0103BE00033B
:0103BF00003D
:0103C000003C
:0103C100013A
:0103C2000337
:0103C3000138
:0103C4000335
:0103C5000136
:0103C6000135
:0103C7000332
:0103C8000331
:0103C9000330
:0103CA000032
:0103CB000031
:0103CC00032D
:0103CD00032C
:0103CE00012D
:0103CF00032A
:0103D000012B
:0103D1000328
:0103D2000129
:0103D3000128
:0103D4000325
:0103D5000126
:0103D6000125
:0103D7000025
:0103D8000321
:0103D9000122
:0103DA000121
:0103DB00031E
:0103DC000020
:0103DD00031C
:0103DE00031B
:0103DF00001D
:0103E0000319
:0103E100011A
:0103E200001A
:0103E3000019
:0103E4000117
:0103E5000116
:0103E6000313
:0103E7000015
:0103E8000014
:0103E9000112
:0103EA000111
:0103EB00030E
:0103EC000010
:0103ED00000F
:0103EE00010D
:0103EF00000D
:0103F000000C
:0103F1000308
:0103F2000109
:0103F3000108
:0103F4000305
:0103F5000304
:0103F6000105
:0103F7000005
:0103F8000004
:0103F9000300
:0103FA0003FF
:0103FB0003FE
:0103FC0001FF
:0103FD0000FF
:0103FE0000FE
:0103FF0000FD
:0104000000FB
:0104010003F7
:0104020000F9
:0104030001F7
:0104040003F4
:0104050001F5
:0104060001F4
:0104070003F1
:0104080000F3
:0104090000F2
:01040A0003EE
:01040B0001EF
:01040C0000EF
:01040D0003EB
:01040E0000ED
:01040F0003E9
:0104100000EB
:0104110000EA
:0104120000E9
:0104130003E5
:0104140003E4
:0104150003E3
:0104160003E2
:0104170003E1
:0104180001E2
:0104190003DF
:01041A0001E0
:01041B0003DD
:01041C0000DF
:01041D0003DB
:01041E0001DC
:01041F0001DB
:0104200001DA
:0104210000DA
:0104220000D9
:0104230001D7
:0104240003D4
:0104250003D3
:0104260001D4
:0104270000D4
:0104280001D2
:0104290000D2
:01042A0003CE
:01042B0003CD
:01042C0000CF
:01042D0001CD
:01042E0003CA
:01042F0003C9
:0104300003C8
:0104310001C9
:0104320000C9
:0104330000C8
:0104340003C4
:0104350001C5
:0104360001C4
:0104370003C1
:0104380000C3
:0104390001C1
:01043A0000C1
:01043B0000C0
:01043C0003BC
:01043D0000BE
:01043E0001BC
:01043F0000BC
:0104400000BB
:0104410001B9
:0104420003B6
:0104430000B8
:0104440003B4
:0104450003B3
:0104460003B2
:0104470003B1
:0104480000B3
:0104490001B1
:01044A0003AE
:01044B0001AF
:01044C0003AC
:01044D0003AB
:01044E0003AA
:01044F0000AC
:0104500001AA
:0104510000AA
:0104520000A9
:0104530000A8
:0104540003A4
:0104550001A5
:0104560003A2
:0104570003A1
:0104580001A2
:0104590001A1
:01045A0000A1
:01045B00019F
:01045C00009F
:01045D00019D
:01045E00019C
:01045F00009C
:01046000009B
:010461000199
:010462000198
:010463000098
:010464000394
:010465000195
:010466000194
:010467000391
:010468000390
:01046900038F
:01046A00038E
:01046B00018F
:01046C00018E
:01046D00018D
:01046E00008D
:01046F00008C
:01047000018A
:01047100008A
:010472000386
:010473000088
:010474000087
:010475000086
:010476000184
:010477000381
:010478000380
:01047900037F
:01047A000180
:01047B00017F
:01047C00037C
:01047D00017D
:01047E00017C
:01047F00007C
:010480000378
:010481000179
:010482000178
:010483000375
:010484000077
:010485000076
:010486000174
:010487000173
:010488000172
:01048900036F
:01048A000170
:01048B00016F
:01048C00006F
:01048D00006E
:01048E00036A
:01048F00006C
:01049000006B
:01049100006A
:010492000168
:010493000167
:010494000364
:010495000363
:010496000362
:010497000361
:010498000063
:01049900035F
:01049A000061
:01049B000060
:01049C00005F
:01049D00035B
:01049E00035A
:01049F00015B
:0104A000005B
:0104A1000159
:0104A2000158
:0104A3000058
:0104A4000057
:0104A5000353
:0104A6000154
:0104A7000054
:0104A8000152
:0104A9000151
:0104AA000150
:0104AB000050
:0104AC00014E
:0104AD00034B
:0104AE00004D
:0104AF000349
:0104B0000348
:0104B1000149
:0104B2000346
:0104B3000048
:0104B4000146
:0104B5000046
:0104B6000144
:0104B7000143
:0104B8000043
:0104B900033F
:0104BA000140
:0104BB00033D
:0104BC00033C
:0104BD00003E
:0104BE00003D
:0104BF00003C
:0104C000013A
:0104C1000139
:0104C2000336
:0104C3000137
:0104C4000037
:0104C5000135
:0104C6000332
:0104C7000133
:0104C8000132
:0104C9000032
:0104CA00032E
:0104CB00032D
:0104CC00012E
:0104CD00002E
:0104CE00002D
:0104CF00012B
:0104D000002B
:0104D100002A
:0104D2000128
:0104D3000127
:0104D4000027
:0104D5000125
:0104D6000025
:0104D7000024
:0104D8000122
:0104D9000022
:0104DA00031E
:0104DB00011F
:0104DC00001F
:0104DD00031B
:0104DE00031A
:0104DF00001C
:0104E000001B
:0104E100001A
:0104E2000118
:0104E3000315
:0104E4000116
:0104E5000016
:0104E6000312
:0104E7000311
:0104E8000013
:0104E900030F
:0104EA000011
:0104EB00030D
:0104EC00030C
:0104ED00010D
:0104EE00010C
:0104EF000309
:0104F000000B
:0104F1000109
:0104F2000108
:0104F3000305
:0104F4000007
:0104F5000006
:0104F6000005
:0104F7000301
:0104F8000300
:0104F9000101
:0104FA0003FE
:0104FB000000
:0104FC0000FF
:0104FD0001FD
:0104FE0001FC
:0104FF0001FB
:0105000001F9
:0105010000F9
:0105020000F8
:0105030000F7
:0105040000F6
:0105050003F2
:0105060001F3
:0105070000F3
:0105080003EF
:0105090000F1
:01050A0003ED
:01050B0001EE
:01050C0001ED
:01050D0000ED
:01050E0003E9
:01050F0001EA
:0105100001E9
:0105110001E8
:0105120003E5
:0105130000E7
:0105140001E5
:0105150003E2
:0105160001E3
:0105170001E2
:0105180000E2
:0105190001E0
:01051A0000E0
:01051B0003DC
:01051C0003DB
:01051D0003DA
:01051E0001DB
:01051F0001DA
:0105200001D9
:0105210003D6
:0105220000D8
:0105230000D7
:0105240003D3
:0105250003D2
:0105260001D3
:0105270003D0
:0105280003CF
:0105290003CE
:01052A0001CF
:01052B0001CE
:01052C0001CD
:01052D0003CA
:01052E0001CB
:01052F0003C8
:0105300001C9
:0105310001C8
:0105320003C5
:0105330001C6
:0105340003C3
:0105350000C5
:0105360001C3
:0105370000C3
:0105380001C1
:0105390003BE
:01053A0003BD
:01053B0001BE
:01053C0003BB
:01053D0003BA
:01053E0001BB
:01053F0001BA
:0105400003B7
:0105410003B6
:0105420000B8
:0105430000B7
:0105440000B6
:0105450000B5
:0105460000B4
:0105470001B2
:0105480000B2
:0105490001B0
:01054A0003AD
:01054B0000AF
:01054C0000AE
:01054D0000AD
:01054E0000AC
:01054F0000AB
:0105500003A7
:0105510000A9
:0105520003A5
:0105530001A6
:0105540001A5
:0105550003A2
:0105560003A1
:0105570003A0
:0105580000A2
:01055900039E
:01055A0000A0
:01055B00009F
:01055C00009E
:01055D00009D
:01055E00009C
:01055F000398
:01056000009A
:010561000396
:010562000197
:010563000394
:010564000195
:010565000095
:010566000094
:010567000192
:010568000092
:010569000091
:01056A000090
:01056B00018E
:01056C00038B
:01056D00038A
:01056E00008C
:01056F00018A
:010570000189
:010571000089
:010572000187
:010573000186
:010574000185
:010575000382
:010576000084
:010577000182
:010578000082
:010579000180
:01057A00037D
:01057B00007F
:01057C00037B
:01057D00007D
:01057E00017B
:01057F00007B
:010580000179
:010581000079
:010582000078
:010583000077
:010584000175
:010585000075
:010586000173
:010587000370
:010588000171
:010589000071
:01058A00016F
:01058B00016E
:01058C00036B
:01058D00006D
:01058E000369
:01058F00016A
:01059000006A
:010591000069
:010592000167
:010593000166
:010594000066
:010595000065
:010596000361
:010597000162
:010598000062
:01059900035E
:01059A00015F
:01059B00015E
:01059C00035B
:01059D00015C
:01059E00005C
:01059F00005B
:0105A0000159
:0105A1000158
:0105A2000355
:0105A3000057
:0105A4000155
:0105A5000154
:0105A6000054
:0105A7000350
:0105A8000151
:0105A900034E
:0105AA00014F
:0105AB00004F
:0105AC00004E
:0105AD00004D
:0105AE00014B
:0105AF00004B
:0105B0000347
:0105B1000148
:0105B2000048
:0105B3000146
:0105B4000343
:0105B5000342
:0105B6000044
:0105B7000043
:0105B8000141
:0105B9000140
:0105BA00033D
:0105BB00033C
:0105BC00033B
:0105BD00033A
:0105BE00003C
:0105BF000338
:0105C0000337
:0105C1000336
:0105C2000335
:0105C3000037
:0105C4000135
:0105C5000035
:0105C6000133
:0105C7000330
:0105C8000131
:0105C900032E
:0105CA000030
:0105CB00012E
:0105CC00012D
:0105CD00032A
:0105CE00002C
:0105CF00002B
:0105D0000327
:0105D1000128
:0105D2000028
:0105D3000126
:0105D4000026
:0105D5000322
:0105D6000321
:0105D7000122
:0105D8000022
:0105D900031E
:0105DA000020
:0105DB00001F
:0105DC00001E
:0105DD00001D
:0105DE00011B
:0105DF00011A
:0105E0000317
:0105E1000118
:0105E2000117
:0105E3000017
:0105E4000016
:0105E5000114
:0105E6000113
:0105E7000310
:0105E8000012
:0105E9000110
:0105EA00010F
:0105EB00000F
:0105EC00010D
:0105ED00030A
:0105EE00000C
:0105EF00000B
:0105F000000A
:0105F1000108
:0105F2000008
:0105F3000007
:0105F4000303
:0105F5000302
:0105F6000004
:0105F7000300
:0105F8000002
:0105F9000100
:0105FA0003FD
:0105FB0003FC
:0105FC0001FD
:0105FD0001FC
:0105FE0003F9
:0105FF0003F8
:0106000001F8
:0106010001F7
:0106020000F7
:0106030000F6
:0106040001F4
:0106050000F4
:0106060001F2
:0106070003EF
:0106080001F0
:0106090003ED
:01060A0000EF
:01060B0003EB
:01060C0000ED
:01060D0000EC
:01060E0003E8
:01060F0001E9
:0106100001E8
:0106110000E8
:0106120000E7
:0106130000E6
:0106140000E5
:0106150000E4
:0106160000E3
:0106170003DF
:0106180003DE
:0106190000E0
:01061A0003DC
:01061B0000DE
:01061C0001DC
:01061D0003D9
:01061E0000DB
:01061F0000DA
:0106200000D9
:0106210003D5
:0106220000D7
:0106230001D5
:0106240001D4
:0106250001D3
:0106260000D3
:0106270001D1
:0106280001D0
:0106290003CD
:01062A0000CF
:01062B0001CD
:01062C0003CA
:01062D0001CB
:01062E0000CB
:01062F0003C7
:0106300000C9
:0106310000C8
:0106320003C4
:0106330001C5
:0106340003C2
:0106350001C3
:0106360000C3
:0106370003BF
:0106380003BE
:0106390001BF
:01063A0003BC
:01063B0000BE
:01063C0001BC
:01063D0003B9
:01063E0000BB
:01063F0003B7
:0106400000B9
:0106410000B8
:0106420000B7
:0106430001B5
:0106440003B2
:0106450003B1
:0106460001B2
:0106470003AF
:0106480001B0
:0106490003AD
:01064A0000AF
:01064B0001AD
:01064C0000AD
:01064D0000AC
:01064E0003A8
:01064F0000AA
:0106500001A8
:0106510000A8
:0106520001A6
:0106530003A3
:0106540000A5
:0106550003A1
:0106560000A3
:0106570000A2
:0106580001A0
:0106590000A0
:01065A00009F
:01065B00019D
:01065C00009D
:01065D000399
:01065E00019A
:01065F000199
:010660000396
:010661000395
:010662000196
:010663000393
:010664000194
:010665000391
:010666000192
:010667000191
:01066800038E
:010669000090
:01066A00038C
:01066B00038B
:01066C00008D
:01066D000389
:01066E00018A
:01066F000189
:010670000188
:010671000385
:010672000384
:010673000383
:010674000184
:010675000084
:010676000182
:010677000181
:010678000180
:01067900037D
:01067A00017E
:01067B00017D
:01067C00007D
:01067D00007C
:01067E00007B
:01067F00007A
:010680000178
:010681000375
:010682000077
:010683000076
:010684000174
:010685000173
:010686000073
:010687000171
:01068800036E
:01068900036D
:01068A00006F
:01068B00006E
:01068C00006D
:01068D00016B
:01068E00006B
:01068F00006A
:010690000366
:010691000167
:010692000166
:010693000165
:010694000065
:010695000064
:010696000360
:010697000161
:010698000061
:01069900035D
:01069A00015E
:01069B00015D
:01069C00015C
:01069D00005C
:01069E00005B
:01069F000159
:0106A0000059
:0106A1000157
:0106A2000156
:0106A3000155
:0106A4000055
:0106A5000351
:0106A6000053
:0106A7000151
:0106A8000150
:0106A900034D
:0106AA00004F
:0106AB00034B
:0106AC00014C
:0106AD00014B
:0106AE00004B
:0106AF000149
:0106B0000049
:0106B1000147
:0106B2000146
:0106B3000145
:0106B4000144
:0106B5000341
:0106B6000340
:0106B7000141
:0106B8000041
:0106B900033D
:0106BA00003F
:0106BB00013D
:0106BC00033A
:0106BD00003C
:0106BE00003B
:0106BF000139
:0106C0000138
:0106C1000335
:0106C2000037
:0106C3000333
:0106C4000134
:0106C5000331
:0106C6000132
:0106C7000032
:0106C8000130
:0106C900032D
:0106CA00032C
:0106CB00032B
:0106CC00002D
:0106CD00002C
:0106CE000328
:0106CF000129
:0106D0000029
:0106D1000127
:0106D2000324
:0106D3000125
:0106D4000025
:0106D5000024
:0106D6000023
:0106D7000121
:0106D8000120
:0106D9000020
:0106DA00011E
:0106DB00031B
:0106DC00001D
:0106DD000319
:0106DE00011A
:0106DF000119
:0106E0000316
:0106E1000018
:0106E2000116
:0106E3000016
:0106E4000015
:0106E5000113
:0106E6000310
:0106E7000111
:0106E800030E
:0106E9000010
:0106EA00010E
:0106EB00000E
:0106EC00000D
:0106ED00000C
:0106EE000308
:0106EF000307
:0106F0000306
:0106F1000305
:0106F2000106
:0106F3000006
:0106F4000005
:0106F5000004
:0106F6000300
:0106F7000002
:0106F8000100
:0106F9000000
:0106FA0001FE
:0106FB0000FE
:0106FC0001FC
:0106FD0003F9
:0106FE0003F8
:0106FF0003F7
:0107000001F7
:0107010003F4
:0107020003F3
:0107030000F5
:0107040000F4
:0107050000F3
:0107060000F2
:0107070000F1
:0107080000F0
:0107090000EF
:01070A0003EB
:01070B0001EC
:01070C0000EC
:01070D0001EA
:01070E0000EA
:01070F0003E6
:0107100001E7
:0107110000E7
:0107120001E5
:0107130001E4
:0107140001E3
:0107150000E3
:0107160003DF
:0107170001E0
:0107180000E0
:0107190003DC
:01071A0000DE
:01071B0001DC
:01071C0001DB
:01071D0000DB
:01071E0003D7
:01071F0001D8
:0107200001D7
:0107210003D4
:0107220001D5
:0107230000D5
:0107240001D3
:0107250003D0
:0107260003CF
:0107270001D0
:0107280000D0
:0107290003CC
:01072A0001CD
:01072B0001CC
:01072C0003C9
:01072D0003C8
:01072E0000CA
:01072F0003C6
:0107300001C7
:0107310000C7
:0107320000C6
:0107330000C5
:0107340001C3
:0107350001C2
:0107360000C2
:0107370003BE
:0107380000C0
:0107390000BF
:01073A0000BE
:01073B0000BD
:01073C0001BB
:01073D0000BB
:01073E0001B9
:01073F0003B6
:0107400003B5
:0107410000B7
:0107420001B5
:0107430001B4
:0107440003B1
:0107450001B2
:0107460000B2
:0107470001B0
:0107480003AD
:0107490003AC
:01074A0000AE
:01074B0000AD
:01074C0001AB
:01074D0003A8
:01074E0003A7
:01074F0001A8
:0107500000A8
:0107510000A7
:0107520003A3
:0107530001A4
:0107540001A3
:0107550001A2
:0107560001A1
:0107570000A1
:0107580000A0
:01075900039C
:01075A00039B
:01075B00019C
:01075C00019B
:01075D00019A
:01075E000397
:01075F000396
:010760000098
:010761000196
:010762000195
:010763000194
:010764000193
:010765000093
:010766000092
:010767000091
:010768000090
:01076900008F
:01076A00038B
:01076B00018C
:01076C00018B
:01076D000388
:01076E000189
:01076F000188
:010770000088
:010771000384
:010772000383
:010773000382
:010774000183
:010775000182
:01077600037F
:010777000180
:010778000080
:01077900017E
:01077A00007E
:01077B00017C
:01077C00007C
:01077D000378
:01077E00007A
:01077F000178
:010780000177
:010781000374
:010782000076
:010783000075
:010784000371
:010785000073
:010786000072
:010787000170
:010788000070
:01078900016E
:01078A00036B
:01078B00016C
:01078C000369
:01078D00006B
:01078E000169
:01078F000069
:010790000167
:010791000067
:010792000066
:010793000065
:010794000064
:010795000063
:010796000161
:010797000061
:01079800035D
:01079900015E
:01079A00005E
:01079B00005D
:01079C00015B
:01079D00015A
:01079E00005A
:01079F000356
:0107A0000157
:0107A1000057
:0107A2000353
:0107A3000154
:0107A4000054
:0107A5000053
:0107A600034F
:0107A700034E
:0107A800014F
:0107A900004F
:0107AA00004E
:0107AB00014C
:0107AC00004C
:0107AD00014A
:0107AE00004A
:0107AF000148
:0107B0000147
:0107B1000047
:0107B2000046
:0107B3000045
:0107B4000143
:0107B5000142
:0107B6000042
:0107B700033E
:0107B800033D
:0107B900013E
:0107BA00033B
:0107BB00013C
:0107BC00003C
:0107BD000338
:0107BE000139
:0107BF000039
:0107C0000335
:0107C1000037
:0107C2000135
:0107C3000332
:0107C4000133
:0107C5000132
:0107C6000131
:0107C7000130
:0107C800032D
:0107C900012E
:0107CA00002E
:0107CB00012C
:0107CC00002C
:0107CD00012A
:0107CE000129
:0107CF000128
:0107D0000127
:0107D1000324
:0107D2000026
:0107D3000124
:0107D4000123
:0107D5000023
:0107D6000022
:0107D7000021
:0107D8000020
:0107D900031C
:0107DA00001E
:0107DB00031A
:0107DC00011B
:0107DD00001B
:0107DE000119
:0107DF000118
:0107E0000018
:0107E1000314
:0107E2000115
:0107E3000114
:0107E4000311
:0107E5000013
:0107E600030F
:0107E7000011
:0107E800030D
:0107E900000F
:0107EA00030B
:0107EB00010C
:0107EC00010B
:0107ED000308
:0107EE000307
:0107EF000009
:0107F0000008
:0107F1000007
:0107F2000303
:0107F3000104
:0107F4000103
:0107F5000102
:0107F60003FF
:0107F7000100
:0107F80001FF
:0107F90000FF
:0107FA0001FD
:0107FB0000FD
:0107FC0000FC
:0107FD0001FA
:0107FE0000FA
:0107FF0000F9
:0108000001F6
:0108010003F3
:0108020000F5
:0108030003F1
:0108040003F0
:0108050001F1
:0108060003EE
:0108070001EF
:0108080000EF
:0108090003EB
:01080A0003EA
:01080B0000EC
:01080C0000EB
:01080D0003E7
:01080E0001E8
:01080F0000E8
:0108100003E4
:0108110001E5
:0108120000E5
:0108130001E3
:0108140001E2
:0108150003DF
:0108160000E1
:0108170003DD
:0108180003DC
:0108190000DE
:01081A0001DC
:01081B0000DC
:01081C0001DA
:01081D0000DA
:01081E0003D6
:01081F0001D7
:0108200001D6
:0108210000D6
:0108220003D2
:0108230001D3
:0108240003D0
:0108250001D1
:0108260000D1
:0108270003CD
:0108280001CE
:0108290003CB
:01082A0000CD
:01082B0003C9
:01082C0003C8
:01082D0003C7
:01082E0003C6
:01082F0001C7
:0108300003C4
:0108310001C5
:0108320001C4
:0108330001C3
:0108340003C0
:0108350000C2
:0108360000C1
:0108370001BF
:0108380001BE
:0108390001BD
:01083A0003BA
:01083B0003B9
:01083C0003B8
:01083D0003B7
:01083E0001B8
:01083F0003B5
:0108400000B7
:0108410001B5
:0108420000B5
:0108430001B3
:0108440003B0
:0108450000B2
:0108460001B0
:0108470000B0
:0108480000AF
:0108490003AB
:01084A0001AC
:01084B0003A9
:01084C0001AA
:01084D0003A7
:01084E0000A9
:01084F0000A8
:0108500001A6
:0108510003A3
:0108520003A2
:0108530000A4
:0108540000A3
:0108550001A1
:01085600039E
:01085700019F
:01085800039C
:01085900009E
:01085A00039A
:01085B00019B
:01085C00009B
:01085D000397
:01085E000396
:01085F000098
:010860000196
:010861000096
:010862000392
:010863000094
:010864000390
:010865000092
:010866000091
:01086700038D
:01086800038C
:01086900018D
:01086A00038A
:01086B00018B
:01086C00018A
:01086D00008A
:01086E000188
:01086F000088
:010870000087
:010871000185
:010872000184
:010873000381
:010874000380
:01087500037F
:01087600037E
:01087700037D
:01087800017E
:01087900017D
:01087A00007D
:01087B000379
:01087C00007B
:01087D000179
:01087E000376
:01087F000078
:010880000374
:010881000175
:010882000372
:010883000173
:010884000370
:01088500036F
:010886000170
:010887000070
:01088800016E
:01088900006E
:01088A00006D
:01088B00006C
:01088C00006B
:01088D000367
:01088E000168
:01088F000167
:010890000067
:010891000363
:010892000362
:010893000361
:010894000162
:01089500035F
:010896000160
:01089700015F
:01089800005F
:01089900035B
:01089A00035A
:01089B00005C
:01089C00005B
:01089D00005A
:01089E000158
:01089F000355
:0108A0000354
:0108A1000056
:0108A2000055
:0108A3000153
:0108A4000152
:0108A5000151
:0108A6000051
:0108A700034D
:0108A800014E
:0108A900034B
:0108AA00014C
:0108AB00004C
:0108AC00004B
:0108AD000347
:0108AE000346
:0108AF000147
:0108B0000146
:0108B1000145
:0108B2000342
:0108B3000341
:0108B4000043
:0108B500033F
:0108B6000140
:0108B7000040
:0108B800003F
:0108B900033B
:0108BA00013C
:0108BB00013B
:0108BC000338
:0108BD000139
:0108BE000039
:0108BF000038
:0108C0000037
:0108C1000036
:0108C2000332
:0108C3000133
:0108C4000132
:0108C5000032
:0108C6000130
:0108C700032D
:0108C800012E
:0108C900032B
:0108CA00002D
:0108CB00012B
:0108CC000328
:0108CD00002A
:0108CE000128
:0108CF000028
:0108D0000027
:0108D1000026
:0108D2000025
:0108D3000123
:0108D4000122
:0108D5000121
:0108D600031E
:0108D700031D
:0108D800031C
:0108D900031B
:0108DA00031A
:0108DB000319
:0108DC00001B
:0108DD000317
:0108DE000316
:0108DF000315
:0108E0000314
:0108E1000016
:0108E2000114
:0108E3000311
:0108E4000112
:0108E500030F
:0108E6000011
:0108E700030D
:0108E800030C
:0108E900000E
:0108EA00010C
:0108EB00010B
:0108EC00000B
:0108ED000109
:0108EE000306
:0108EF000107
:0108F0000106
:0108F1000006
:0108F2000005
:0108F3000004
:0108F4000003
:0108F5000002
:0108F6000001
:0108F70001FF
:0108F80000FF
:0108F90003FB
:0108FA0001FC
:0108FB0001FB
:0108FC0000FB
:0108FD0001F9
:0108FE0001F8
:0108FF0003F5
:0109000001F5
:0109010001F4
:0109020000F4
:0109030001F2
:0109040003EF
:0109050001F0
:0109060001EF
:0109070003EC
:0109080003EB
:0109090000ED
:01090A0003E9
:01090B0000EB
:01090C0000EA
:01090D0000E9
:01090E0000E8
:01090F0000E7
:0109100000E6
:0109110000E5
:0109120001E3
:0109130003E0
:0109140003DF
:0109150003DE
:0109160001DF
:0109170003DC
:0109180003DB
:0109190003DA
:01091A0001DB
:01091B0003D8
:01091C0001D9
:01091D0001D8
:01091E0001D7
:01091F0003D4
:0109200000D6
:0109210001D4
:0109220001D3
:0109230001D2
:0109240000D2
:0109250000D1
:0109260000D0
:0109270000CF
:0109280000CE
:0109290001CC
:01092A0001CB
:01092B0003C8
:01092C0000CA
:01092D0003C6
:01092E0003C5
:01092F0003C4
:0109300000C6
:0109310003C2
:0109320001C3
:0109330003C0
:0109340003BF
:0109350001C0
:0109360001BF
:0109370003BC
:0109380000BE
:0109390000BD
:01093A0001BB
:01093B0000BB
:01093C0000BA
:01093D0003B6
:01093E0000B8
:01093F0003B4
:0109400000B6
:0109410003B2
:0109420003B1
:0109430003B0
:0109440000B2
:0109450001B0
:0109460001AF
:0109470000AF
:0109480001AD
:0109490000AD
:01094A0001AB
:01094B0001AA
:01094C0000AA
:01094D0001A8
:01094E0000A8
:01094F0000A7
:0109500003A3
:0109510001A4
:0109520000A4
:0109530000A3
:0109540001A1
:0109550000A1
:0109560000A0
:01095700019E
:01095800019D
:01095900039A
:01095A00019B
:01095B000398
:01095C000199
:01095D000099
:01095E000098
:01095F000097
:010960000195
:010961000392
:010962000094
:010963000093
:010964000191
:010965000091
:010966000090
:01096700008F
:01096800018D
:01096900038A
:01096A000389
:01096B00018A
:01096C000387
:01096D000089
:01096E000385
:01096F000186
:010970000086
:010971000085
:010972000183
:010973000083
:010974000082
:010975000081
:010976000080
:01097700037C
:01097800037B
:01097900037A
:01097A00007C
:01097B000378
:01097C000179
:01097D000079
:01097E000177
:01097F000176
:010980000175
:010981000174
:010982000371
:010983000073
:01098400036F
:01098500036E
:01098600016F
:01098700016E
:01098800006E
:01098900006D
:01098A00016B
:01098B000368
:01098C000367
:01098D000366
:01098E000167
:01098F000166
:010990000066
:010991000164
:010992000163
:010993000162
:010994000062
:010995000061
:01099600015F
:01099700035C
:01099800005E
:01099900015C
:01099A00005C
:01099B000358
:01099C000357
:01099D000158
:01099E000157
:01099F000156
:0109A0000353
:0109A1000352
:0109A2000153
:0109A3000152
:0109A400034F
:0109A5000150
:0109A600034D
:0109A700014E
:0109A800014D
:0109A900004D
:0109AA00014B
:0109AB00004B
:0109AC00004A
:0109AD000346
:0109AE000048
:0109AF000146
:0109B0000145
:0109B1000144
:0109B2000341
:0109B3000043
:0109B4000042
:0109B500033E
:0109B600013F
:0109B700013E
:0109B800033B
:0109B900003D
:0109BA000339
:0109BB000338
:0109BC000337
:0109BD000138
:0109BE000137
:0109BF000136
:0109C0000333
:0109C1000134
:0109C2000331
:0109C3000330
:0109C400032F
:0109C500032E
:0109C600012F
:0109C700032C
:0109C800012D
:0109C900002D
:0109CA00012B
:0109CB00002B
:0109CC000327
:0109CD000029
:0109CE000325
:0109CF000324
:0109D0000323
:0109D1000124
:0109D2000024
:0109D3000122
:0109D400031F
:0109D5000021
:0109D6000020
:0109D700001F
:0109D800031B
:0109D900001D
:0109DA00011B
:0109DB00001B
:0109DC00001A
:0109DD000019
:0109DE000018
:0109DF000314
:0109E0000313
:0109E1000015
:0109E2000113
:0109E3000013
:0109E4000111
:0109E5000110
:0109E600030D
:0109E700010E
:0109E800000E
:0109E900030A
:0109EA000309
:0109EB00010A
:0109EC000307
:0109ED000108
:0109EE000107
:0109EF000106
:0109F0000006
:0109F1000104
:0109F2000004
:0109F3000300
:0109F40003FF
:0109F50003FE
:0109F60003FD
:0109F70003FC
:0109F80001FD
:0109F90000FD
:0109FA0000FC
:0109FB0001FA
:0109FC0003F7
:0109FD0003F6
:0109FE0003F5
:0109FF0003F4
:010A000001F4
:010A010000F4
:010A020003F0
:010A030000F2
:010A040003EE
:010A050003ED
:010A060001EE
:010A070001ED
:010A080003EA
:010A090003E9
:010A0A0003E8
:010A0B0001E9
:010A0C0000E9
:010A0D0001E7
:010A0E0000E7
:010A0F0003E3
:010A100001E4
:010A110001E3
:010A120000E3
:010A130003DF
:010A140003DE
:010A150001DF
:010A160000DF
:010A170003DB
:010A180003DA
:010A190001DB
:010A1A0003D8
:010A1B0003D7
:010A1C0000D9
:010A1D0003D5
:010A1E0001D6
:010A1F0000D6
:010A200000D5
:010A210003D1
:010A220001D2
:010A230000D2
:010A240003CE
:010A250001CF
:010A260003CC
:010A270000CE
:010A280003CA
:010A290001CB
:010A2A0001CA
:010A2B0000CA
:010A2C0001C8
:010A2D0001C7
:010A2E0001C6
:010A2F0000C6
:010A300001C4
:010A310000C4
:010A320003C0
:010A330001C1
:010A340003BE
:010A350001BF
:010A360001BE
:010A370003BB
:010A380000BD
:010A390001BB
:010A3A0003B8
:010A3B0001B9
:010A3C0003B6
:010A3D0000B8
:010A3E0003B4
:010A3F0003B3
:010A400000B5
:010A410001B3
:010A420000B3
:010A430000B2
:010A440001B0
:010A450003AD
:010A460001AE
:010A470000AE
:010A480003AA
:010A490001AB
:010A4A0003A8
:010A4B0000AA
:010A4C0003A6
:010A4D0000A8
:010A4E0001A6
:010A4F0000A6
:010A500001A4
:010A510003A1
:010A520003A0
:010A530001A1
:010A540001A0
:010A5500019F
:010A5600019E
:010A5700039B
:010A5800019C
:010A5900009C
:010A5A000398
:010A5B000397
:010A5C000099
:010A5D000098
:010A5E000097
:010A5F000195
:010A60000194
:010A61000094
:010A62000390
:010A6300038F
:010A64000091
:010A6500018F
:010A6600008F
:010A6700038B
:010A6800018C
:010A69000389
:010A6A00008B
:010A6B000387
:010A6C000188
:010A6D000187
:010A6E000087
:010A6F000383
:010A70000382
:010A71000381
:010A72000182
:010A73000082
:010A74000180
:010A75000080
:010A7600017E
:010A7700037B
:010A7800017C
:010A79000379
:010A7A00017A
:010A7B000377
:010A7C000178
:010A7D000078
:010A7E000176
:010A7F000373
:010A80000075
:010A81000173
:010A82000073
:010A83000072
:010A84000170
:010A8500036D
:010A8600016E
:010A8700036B
:010A8800016C
:010A8900016B
:010A8A000368
:010A8B00006A
:010A8C000069
:010A8D000365
:010A8E000364
:010A8F000066
:010A90000164
:010A91000064
:010A92000360
:010A93000161
:010A94000061
:010A9500035D
:010A9600035C
:010A9700015D
:010A9800015C
:010A9900005C
:010A9A00005B
:010A9B000159
:010A9C000158
:010A9D000058
:010A9E000156
:010A9F000056
:010AA0000352
:010AA1000054
:010AA2000152
:010AA3000151
:010AA4000150
:010AA500014F
:010AA600014E
:010AA700034B
:010AA800004D
:010AA900014B
:010AAA000348
:010AAB00004A
:010AAC000346
:010AAD000345
:010AAE000047
:010AAF000046
:010AB0000144
:010AB1000341
:010AB2000142
:010AB300033F
:010AB4000041
:010AB5000040
:010AB600033C
:010AB700033B
:010AB800033A
:010AB9000339
:010ABA000338
:010ABB00003A
:010ABC000138
:010ABD000335
:010ABE000136
:010ABF000135
:010AC0000134
:010AC1000331
:010AC2000033
:010AC3000131
:010AC4000031
:010AC500012F
:010AC600012E
:010AC700032B
:010AC800012C
:010AC900012B
:010ACA00002B
:010ACB00002A
:010ACC000029
:010ACD000127
:010ACE000027
:010ACF000026
:010AD0000322
:010AD1000123
:010AD2000320
:010AD3000121
:010AD4000021
:010AD5000020
:010AD600011E
:010AD700011D
:010AD800031A
:010AD9000319
:010ADA00011A
:010ADB000119
:010ADC000019
:010ADD000315
:010ADE000116
:010ADF000016
:010AE0000015
:010AE1000311
:010AE2000310
:010AE300030F
:010AE4000110
:010AE500030D
:010AE600010E
:010AE700010D
:010AE800030A
:010AE900010B
:010AEA00000B
:010AEB00000A
:010AEC000306
:010AED000305
:010AEE000304
:010AEF000105
:010AF0000104
:010AF1000004
:010AF2000300
:010AF3000101
:010AF4000100
:010AF50003FD
:010AF60001FE
:010AF70001FD
:010AF80000FD
:010AF90000FC
:010AFA0001FA
:010AFB0001F9
:010AFC0000F9
:010AFD0000F8
:010AFE0003F4
:010AFF0003F3
:010B000001F3
:010B010000F3
:010B020000F2
:010B030001F0
:010B040000F0
:010B050000EF
:010B060000EE
:010B070001EC
:010B080003E9
:010B090001EA
:010B0A0000EA
:010B0B0000E9
:010B0C0000E8
:010B0D0000E7
:010B0E0003E3
:010B0F0000E5
:010B100003E1
:010B110001E2
:010B120000E2
:010B130001E0
:010B140003DD
:010B150001DE
:010B160003DB
:010B170003DA
:010B180001DB
:010B190001DA
:010B1A0001D9
:010B1B0001D8
:010B1C0001D7
:010B1D0000D7
:010B1E0001D5
:010B1F0000D5
:010B200001D3
:010B210000D3
:010B220003CF
:010B230003CE
:010B240001CF
:010B250003CC
:010B260003CB
:010B270003CA
:010B280000CC
:010B290000CB
:010B2A0000CA
:010B2B0001C8
:010B2C0000C8
:010B2D0003C4
:010B2E0000C6
:010B2F0001C4
:010B300000C4
:010B310001C2
:010B320003BF
:010B330000C1
:010B340000C0
:010B350001BE
:010B360003BB
:010B370000BD
:010B380003B9
:010B390003B8
:010B3A0001B9
:010B3B0003B6
:010B3C0000B8
:010B3D0003B4
:010B3E0001B5
:010B3F0001B4
:010B400001B3
:010B410000B3
:010B420000B2
:010B430001B0
:010B440003AD
:010B450003AC
:010B460001AD
:010B470003AA
:010B480001AB
:010B490000AB
:010B4A0003A7
:010B4B0000A9
:010B4C0003A5
:010B4D0003A4
:010B4E0000A6
:010B4F0003A2
:010B500003A1
:010B510000A3
:010B520000A2
:010B5300039E
:010B5400019F
:010B5500039C
:010B5600039B
:010B5700009D
:010B58000399
:010B59000398
:010B5A000397
:010B5B000198
:010B5C000197
:010B5D000097
:010B5E000096
:010B5F000095
:010B60000193
:010B61000093
:010B62000092
:010B63000190
:010B64000090
:010B6500038C
:010B6600038B
:010B6700018C
:010B6800008C
:010B69000388
:010B6A000387
:010B6B000089
:010B6C000385
:010B6D000087
:010B6E000383
:010B6F000184
:010B70000183
:010B71000182
:010B72000181
:010B73000081
:010B7400017F
:010B7500007F
:010B7600017D
:010B7700017C
:010B7800017B
:010B79000378
:010B7A000377
:010B7B000376
:010B7C000375
:010B7D000077
:010B7E000076
:010B7F000075
:010B80000173
:010B81000172
:010B82000171
:010B83000170
:010B8400036D
:010B8500006F
:010B8600006E
:010B8700006D
:010B8800016B
:010B89000368
:010B8A00006A
:010B8B000366
:010B8C000167
:010B8D000166
:010B8E000363
:010B8F000362
:010B90000361
:010B91000063
:010B9200035F
:010B93000061
:010B94000060
:010B9500015E
:010B9600015D
:010B9700005D
:010B98000359
:010B9900005B
:010B9A000159
:010B9B000158
:010B9C000058
:010B9D000354
:010B9E000155
:010B9F000055
:010BA0000054
:010BA1000053
:010BA2000151
:010BA3000051
:010BA400014F
:010BA500034C
:010BA600034B
:010BA700034A
:010BA800004C
:010BA9000348
:010BAA000347
:010BAB000148
:010BAC000345
:010BAD000047
:010BAE000343
:010BAF000045
:010BB0000143
:010BB1000043
:010BB2000042
:010BB3000041
:010BB400013F
:010BB500013E
:010BB600013D
:010BB700003D
:010BB800003C
:010BB900003B
:010BBA00003A
:010BBB000039
:010BBC000335
:010BBD000334
:010BBE000333
:010BBF000035
:010BC0000034
:010BC1000033
:010BC200032F
:010BC300032E
:010BC400032D
:010BC500012E
:010BC600002E
:010BC700002D
:010BC8000329
:010BC9000328
:010BCA00002A
:010BCB000128
:010BCC000028
:010BCD000126
:010BCE000323
:010BCF000322
:010BD0000321
:010BD1000122
:010BD2000121
:010BD3000021
:010BD400031D
:010BD500001F
:010BD600001E
:010BD700001D
:010BD8000319
:010BD9000318
:010BDA000119
:010BDB000316
:010BDC000315
:010BDD000116
:010BDE000115
:010BDF000312
:010BE0000311
:010BE1000013
:010BE2000012
:010BE3000110
:010BE400010F
:010BE500000F
:010BE600010D
:010BE700010C
:010BE800000C
:010BE9000308
:010BEA000109
:010BEB000306
:010BEC000008
:010BED000106
:010BEE000006
:010BEF000005
:010BF0000301
:010BF1000300
:010BF2000002
:010BF3000100
:010BF4000000
:010BF50003FC
:010BF60000FE
:010BF70003FA
:010BF80000FC
:010BF90003F8
:010BFA0000FA
:010BFB0000F9
:010BFC0000F8
:010BFD0003F4
:010BFE0001F5
:010BFF0001F4
:010C000000F3
:010C010000F2
:010C020003EE
:010C030001EF
:010C040000EF
:010C050001ED
:010C060003EA
:010C070003E9
:010C080000EB
:010C090000EA
:010C0A0003E6
:010C0B0001E7
:010C0C0001E6
:010C0D0000E6
:010C0E0000E5
:010C0F0003E1
:010C100003E0
:010C110001E1
:010C120003DE
:010C130003DD
:010C140003DC
:010C150003DB
:010C160003DA
:010C170000DC
:010C180000DB
:010C190001D9
:010C1A0000D9
:010C1B0000D8
:010C1C0003D4
:010C1D0000D6
:010C1E0001D4
:010C1F0001D3
:010C200003D0
:010C210001D1
:010C220003CE
:010C230000D0
:010C240000CF
:010C250001CD
:010C260003CA
:010C270000CC
:010C280001CA
:010C290000CA
:010C2A0003C6
:010C2B0001C7
:010C2C0003C4
:010C2D0001C5
:010C2E0003C2
:010C2F0000C4
:010C300001C2
:010C310000C2
:010C320001C0
:010C330003BD
:010C340000BF
:010C350000BE
:010C360003BA
:010C370003B9
:010C380001BA
:010C390003B7
:010C3A0001B8
:010C3B0000B8
:010C3C0001B6
:010C3D0000B6
:010C3E0000B5
:010C3F0000B4
:010C400003B0
:010C410001B1
:010C420003AE
:010C430003AD
:010C440001AE
:010C450001AD
:010C460000AD
:010C470003A9
:010C480000AB
:010C490000AA
:010C4A0003A6
:010C4B0001A7
:010C4C0001A6
:010C4D0000A6
:010C4E0003A2
:010C4F0001A3
:010C500003A0
:010C5100039F
:010C520000A1
:010C5300019F
:010C5400009F
:010C5500039B
:010C5600039A
:010C5700009C
:010C5800019A
:010C59000199
:010C5A000396
:010C5B000098
:010C5C000196
:010C5D000096
:010C5E000194
:010C5F000391
:010C60000192
:010C61000092
:010C62000190
:010C6300018F
:010C6400008F
:010C6500038B
:010C6600008D
:010C6700008C
:010C68000388
:010C69000189
:010C6A000386
:010C6B000385
:010C6C000087
:010C6D000185
:010C6E000382
:010C6F000084
:010C70000182
:010C71000082
:010C7200037E
:010C7300037D
:010C7400017E
:010C7500017D
:010C7600037A
:010C7700007C
:010C7800017A
:010C79000179
:010C7A000178
:010C7B000078
:010C7C000077
:010C7D000175
:010C7E000075
:010C7F000074
:010C80000073
:010C81000072
:010C82000170
:010C8300036D
:010C8400036C
:010C8500006E
:010C8600006D
:010C87000369
:010C8800016A
:010C89000169
:010C8A000069
:010C8B000068
:010C8C000364
:010C8D000165
:010C8E000362
:010C8F000064
:010C90000063
:010C91000062
:010C92000160
:010C9300015F
:010C9400035C
:010C9500005E
:010C9600005D
:010C9700015B
:010C9800005B
:010C9900005A
:010C9A000356
:010C9B000157
:010C9C000156
:010C9D000155
:010C9E000055
:010C9F000153
:010CA0000053
:010CA1000052
:010CA2000150
:010CA300014F
:010CA400034C
:010CA500014D
:010CA600004D
:010CA7000349
:010CA800004B
:010CA9000347
:010CAA000346
:010CAB000147
:010CAC000146
:010CAD000046
:010CAE000342
:010CAF000143
:010CB0000043
:010CB1000042
:010CB2000041
:010CB300033D
:010CB400003F
:010CB500013D
:010CB600033A
:010CB700003C
:010CB800013A
:010CB9000139
:010CBA000138
:010CBB000137
:010CBC000037
:010CBD000135
:010CBE000332
:010CBF000331
:010CC0000132
:010CC1000032
:010CC2000130
:010CC3000030
:010CC400002F
:010CC500002E
:010CC600002D
:010CC700012B
:010CC800002B
:010CC9000327
:010CCA000029
:010CCB000028
:010CCC000324
:010CCD000323
:010CCE000124
:010CCF000024
:010CD0000023
:010CD1000121
:010CD200031E
:010CD300011F
:010CD400001F
:010CD500031B
:010CD600011C
:010CD700011B
:010CD800011A
:010CD9000119
:010CDA000118
:010CDB000117
:010CDC000017
:010CDD000313
:010CDE000015
:010CDF000113
:010CE0000013
:010CE1000012
:010CE2000011
:010CE300030D
:010CE400010E
:010CE500010D
:010CE600010C
:010CE700010B
:010CE800000B
:010CE9000307
:010CEA000108
:010CEB000305
:010CEC000304
:010CED000303
:010CEE000005
:010CEF000004
:010CF0000300
:010CF1000002
:010CF20003FE
:010CF3000000
:010CF40003FC
:010CF50003FB
:010CF60000FD
:010CF70003F9
:010CF80003F8
:010CF90001F9
:010CFA0001F8
:010CFB0001F7
:010CFC0003F4
:010CFD0000F6
:010CFE0000F5
:010CFF0003F1
:010D000003EF
:010D010003EE
:010D020003ED
:010D030001EE
:010D040000EE
:010D050001EC
:010D060003E9
:010D070003E8
:010D080003E7
:010D090003E6
:010D0A0001E7
:010D0B0000E7
:010D0C0001E5
:010D0D0003E2
:010D0E0001E3
:010D0F0000E3
:010D100003DF
:010D110001E0
:010D120000E0
:010D130000DF
:010D140001DD
:010D150001DC
:010D160001DB
:010D170001DA
:010D180001D9
:010D190000D9
:010D1A0001D7
:010D1B0000D7
:010D1C0000D6
:010D1D0000D5
:010D1E0003D1
:010D1F0001D2
:010D200003CF
:010D210003CE
:010D220003CD
:010D230000CF
:010D240001CD
:010D250003CA
:010D260003C9
:010D270001CA
:010D280000CA
:010D290000C9
:010D2A0000C8
:010D2B0001C6
:010D2C0000C6
:010D2D0000C5
:010D2E0003C1
:010D2F0000C3
:010D300003BF
:010D310001C0
:010D320000C0
:010D330001BE
:010D340003BB
:010D350000BD
:010D360000BC
:010D370001BA
:010D380000BA
:010D390000B9
:010D3A0003B5
:010D3B0000B7
:010D3C0003B3
:010D3D0001B4
:010D3E0000B4
:010D3F0000B3
:010D400000B2
:010D410003AE
:010D420001AF
:010D430001AE
:010D440000AE
:010D450003AA
:010D460000AC
:010D470003A8
:010D480001A9
:010D490003A6
:010D4A0001A7
:010D4B0003A4
:010D4C0001A5
:010D4D0001A4
:010D4E0001A3
:010D4F0003A0
:010D500000A2
:010D510000A1
:010D5200019F
:010D5300019E
:010D5400039B
:010D5500009D
:010D5600019B
:010D57000398
:010D5800009A
:010D59000099
:010D5A000197
:010D5B000097
:010D5C000393
:010D5D000095
:010D5E000094
:010D5F000192
:010D60000191
:010D61000190
:010D6200018F
:010D6300038C
:010D6400038B
:010D6500018C
:010D6600018B
:010D6700008B
:010D68000387
:010D69000188
:010D6A000088
:010D6B000087
:010D6C000086
:010D6D000085
:010D6E000084
:010D6F000380
:010D70000181
:010D7100037E
:010D72000080
:010D7300037C
:010D7400007E
:010D7500037A
:010D7600017B
:010D7700007B
:010D78000377
:010D79000178
:010D7A000177
:010D7B000374
:010D7C000373
:010D7D000174
:010D7E000074
:010D7F000073
:010D8000036F
:010D8100036E
:010D8200016F
:010D8300036C
:010D8400016D
:010D8500036A
:010D86000369
:010D8700006B
:010D88000169
:010D89000168
:010D8A000365
:010D8B000166
:010D8C000363
:010D8D000065
:010D8E000064
:010D8F000162
:010D90000062
:010D91000061
:010D92000060
:010D9300035C
:010D9400005E
:010D9500035A
:010D9600015B
:010D9700005B
:010D98000357
:010D99000059
:010D9A000157
:010D9B000354
:010D9C000155
:010D9D000154
:010D9E000351
:010D9F000053
:010DA000034F
:010DA1000051
:010DA200034D
:010DA300004F
:010DA400034B
:010DA500034A
:010DA600004C
:010DA7000348
:010DA800004A
:010DA9000346
:010DAA000345
:010DAB000146
:010DAC000343
:010DAD000045
:010DAE000044
:010DAF000340
:010DB0000042
:010DB100033E
:010DB200033D
:010DB300003F
:010DB400013D
:010DB500013C
:010DB6000339
:010DB700003B
:010DB8000337
:010DB9000039
:010DBA000335
:010DBB000334
:010DBC000036
:010DBD000035
:010DBE000133
:010DBF000033
:010DC000032F
:010DC100032E
:010DC200032D
:010DC300002F
:010DC400012D
:010DC500032A
:010DC6000329
:010DC700012A
:010DC8000327
:010DC9000326
:010DCA000127
:010DCB000027
:010DCC000026
:010DCD000124
:010DCE000123
:010DCF000320
:010DD0000022
:010DD1000120
:010DD2000020
:010DD300001F
:010DD400031B
:010DD500001D
:010DD600001C
:010DD700001B
:010DD800001A
:010DD9000316
:010DDA000117
:010DDB000116
:010DDC000313
:010DDD000114
:010DDE000113
:010DDF000310
:010DE0000111
:010DE1000110
:010DE2000010
:010DE300030C
:010DE400000E
:010DE500000D
:010DE6000309
:010DE700010A
:010DE800000A
:010DE9000009
:010DEA000008
:010DEB000007
:010DEC000303
:010DED000302
:010DEE000301
:010DEF000300
:010DF0000101
:010DF10003FE
:010DF20001FF
:010DF30003FC
:010DF40001FD
:010DF50003FA
:010DF60000FC
:010DF70003F8
:010DF80000FA
:010DF90000F9
:010DFA0000F8
:010DFB0001F6
:010DFC0003F3
:010DFD0000F5
:010DFE0003F1
:010DFF0000F3
:010E000003EE
:010E010000F0
:010E020000EF
:010E030003EB
:010E040003EA
:010E050003E9
:010E060003E8
:010E070001E9
:010E080003E6
:010E090001E7
:010E0A0003E4
:010E0B0000E6
:010E0C0000E5
:010E0D0003E1
:010E0E0001E2
:010E0F0001E1
:010E100001E0
:010E110000E0
:010E120001DE
:010E130000DE
:010E140003DA
:010E150001DB
:010E160000DB
:010E170001D9
:010E180001D8
:010E190001D7
:010E1A0000D7
:010E1B0000D6
:010E1C0001D4
:010E1D0003D1
:010E1E0001D2
:010E1F0003CF
:010E200000D1
:010E210000D0
:010E220000CF
:010E230003CB
:010E240003CA
:010E250003C9
:010E260003C8
:010E270001C9
:010E280001C8
:010E290001C7
:010E2A0003C4
:010E2B0003C3
:010E2C0001C4
:010E2D0000C4
:010E2E0001C2
:010E2F0001C1
:010E300000C1
:010E310003BD
:010E320003BC
:010E330001BD
:010E340000BD
:010E350003B9
:010E360003B8
:010E370001B9
:010E380000B9
:010E390003B5
:010E3A0003B4
:010E3B0000B6
:010E3C0003B2
:010E3D0000B4
:010E3E0001B2
:010E3F0000B2
:010E400000B1
:010E410003AD
:010E420003AC
:010E430000AE
:010E440000AD
:010E450000AC
:010E460000AB
:010E470003A7
:010E480000A9
:010E490001A7
:010E4A0003A4
:010E4B0003A3
:010E4C0001A4
:010E4D0001A3
:010E4E0001A2
:010E4F0000A2
:010E5000039E
:010E5100019F
:010E5200019E
:010E5300039B
:010E5400019C
:010E5500009C
:010E5600009B
:010E57000199
:010E58000396
:010E59000197
:010E5A000196
:010E5B000195
:010E5C000095
:010E5D000193
:010E5E000390
:010E5F00038F
:010E60000091
:010E6100038D
:010E6200008F
:010E6300008E
:010E6400018C
:010E6500018B
:010E6600008B
:010E6700008A
:010E68000386
:010E69000187
:010E6A000186
:010E6B000383
:010E6C000184
:010E6D000183
:010E6E000380
:010E6F00037F
:010E70000081
:010E7100037D
:010E7200017E
:010E7300017D
:010E7400007D
:010E75000379
:010E7600007B
:010E77000377
:010E78000178
:010E79000177
:010E7A000374
:010E7B000076
:010E7C000174
:010E7D000371
:010E7E000172
:010E7F000072
:010E8000036E
:010E81000070
:010E8200036C
:010E8300016D
:010E8400016C
:010E8500006C
:010E86000368
:010E87000169
:010E88000069
:010E89000068
:010E8A000166
:010E8B000363
:010E8C000065
:010E8D000361
:010E8E000063
:010E8F000062
:010E90000160
:010E9100015F
:010E9200035C
:010E9300005E
:010E9400015C
:010E9500015B
:010E9600015A
:010E97000159
:010E98000059
:010E99000058
:010E9A000354
:010E9B000056
:010E9C000352
:010E9D000153
:010E9E000350
:010E9F00034F
:010EA0000150
:010EA1000050
:010EA200034C
:010EA300014D
:010EA400014C
:010EA500014B
:010EA600004B
:010EA7000347
:010EA8000148
:010EA9000345
:010EAA000146
:010EAB000343
:010EAC000342
:010EAD000044
:010EAE000142
:010EAF00033F
:010EB0000140
:010EB1000040
:010EB200013E
:010EB300033B
:010EB400033A
:010EB500013B
:010EB6000338
:010EB7000337
:010EB8000138
:010EB9000335
:010EBA000136
:010EBB000333
:010EBC000332
:010EBD000034
:010EBE000033
:010EBF000032
:010EC0000130
:010EC1000030
:010EC200012E
:010EC300032B
:010EC400032A
:010EC5000329
:010EC600012A
:010EC700002A
:010EC8000029
:010EC9000325
:010ECA000324
:010ECB000323
:010ECC000322
:010ECD000024
:010ECE000023
:010ECF000022
:010ED0000021
:010ED1000020
:010ED200001F
:010ED300031B
:010ED400031A
:010ED500011B
:010ED600001B
:010ED7000317
:010ED8000118
:010ED9000315
:010EDA000314
:010EDB000115
:010EDC000114
:010EDD000113
:010EDE000112
:010EDF000012
:010EE0000110
:010EE100030D
:010EE200010E
:010EE300030B
:010EE400030A
:010EE5000309
:010EE600000B
:010EE7000109
:010EE8000108
:010EE9000008
:010EEA000106
:010EEB000105
:010EEC000104
:010EED000103
:010EEE000102
:010EEF000002
:010EF0000001
:010EF1000000
:010EF20000FF
:010EF30003FB
:010EF40001FC
:010EF50003F9
:010EF60000FB
:010EF70000FA
:010EF80001F8
:010EF90001F7
:010EFA0001F6
:010EFB0003F3
:010EFC0000F5
:010EFD0001F3
:010EFE0001F2
:010EFF0001F1
:010F000001EF
:010F010003EC
:010F020000EE
:010F030001EC
:010F040001EB
:010F050000EB
:010F060001E9
:010F070003E6
:010F080001E7
:010F090001E6
:010F0A0000E6
:010F0B0001E4
:010F0C0003E1
:010F0D0000E3
:010F0E0000E2
:010F0F0000E1
:010F100003DD
:010F110003DC
:010F120001DD
:010F130001DC
:010F140000DC
:010F150001DA
:010F160001D9
:010F170001D8
:010F180000D8
:010F190003D4
:010F1A0003D3
:010F1B0003D2
:010F1C0003D1
:010F1D0000D3
:010F1E0003CF
:010F1F0000D1
:010F200000D0
:010F210000CF
:010F220000CE
:010F230000CD
:010F240001CB
:010F250001CA
:010F260000CA
:010F270001C8
:010F280000C8
:010F290003C4
:010F2A0000C6
:010F2B0003C2
:010F2C0003C1
:010F2D0000C3
:010F2E0000C2
:010F2F0000C1
:010F300003BD
:010F310000BF
:010F320001BD
:010F330001BC
:010F340003B9
:010F350001BA
:010F360000BA
:010F370000B9
:010F380003B5
:010F390001B6
:010F3A0003B3
:010F3B0003B2
:010F3C0000B4
:010F3D0003B0
:010F3E0003AF
:010F3F0000B1
:010F400003AD
:010F410001AE
:010F420000AE
:010F430000AD
:010F440000AC
:010F450001AA
:010F460000AA
:010F470000A9
:010F480001A7
:010F490003A4
:010F4A0001A5
:010F4B0003A2
:010F4C0000A4
:010F4D0000A3
:010F4E0000A2
:010F4F0001A0
:010F5000019F
:010F5100019E
:010F5200039B
:010F5300039A
:010F54000399
:010F5500009B
:010F56000397
:010F57000396
:010F58000197
:010F59000394
:010F5A000393
:010F5B000194
:010F5C000094
:010F5D000093
:010F5E000092
:010F5F00038E
:010F6000018F
:010F6100038C
:010F6200018D
:010F6300018C
:010F6400018B
:010F65000388
:010F66000387
:010F67000188
:010F68000088
:010F69000087
:010F6A000086
:010F6B000382
:010F6C000381
:010F6D000380
:010F6E00037F
:010F6F000081
:010F7000037D
:010F7100017E
:010F7200007E
:010F7300017C
:010F7400017B
:010F7500017A
:010F76000179
:010F77000178
:010F78000078
:010F79000374
:010F7A000373
:010F7B000174
:010F7C000173
:010F7D000370
:010F7E000171
:010F7F000170
:010F8000016F
:010F8100036C
:010F8200016D
:010F8300016C
:010F8400016B
:010F8500016A
:010F8600006A
:010F87000366
:010F88000365
:010F89000067
:010F8A000066
:010F8B000362
:010F8C000163
:010F8D000162
:010F8E000161
:010F8F00035E
:010F9000035D
:010F9100015E
:010F9200005E
:010F9300035A
:010F9400015B
:010F9500015A
:010F96000159
:010F97000356
:010F98000058
:010F99000057
:010F9A000056
:010F9B000352
:010F9C000153
:010F9D000350
:010F9E00034F
:010F9F000051
:010FA0000050
:010FA100004F
:010FA200034B
:010FA300004D
:010FA400004C
:010FA5000348
:010FA6000149
:010FA7000346
:010FA8000345
:010FA9000344
:010FAA000046
:010FAB000144
:010FAC000341
:010FAD000043
:010FAE000141
:010FAF00033E
:010FB0000040
:010FB100013E
:010FB200003E
:010FB300033A
:010FB400003C
:010FB500003B
:010FB6000337
:010FB7000336
:010FB8000335
:010FB9000334
:010FBA000333
:010FBB000134
:010FBC000034
:010FBD000132
:010FBE000131
:010FBF00032E
:010FC0000030
:010FC100012E
:010FC200032B
:010FC300012C
:010FC400012B
:010FC5000328
:010FC600002A
:010FC7000128
:010FC8000028
:010FC9000126
:010FCA000125
:010FCB000025
:010FCC000321
:010FCD000320
:010FCE00031F
:010FCF00031E
:010FD000011F
:010FD100001F
:010FD200011D
:010FD300011C
:010FD4000319
:010FD500001B
:010FD6000317
:010FD7000019
:010FD8000315
:010FD9000116
:010FDA000016
:010FDB000312
:010FDC000014
:010FDD000013
:010FDE000012
:010FDF000011
:010FE000010F
:010FE100030C
:010FE200030B
:010FE300030A
:010FE4000309
:010FE500000B
:010FE6000307
:010FE7000108
:010FE8000008
:010FE9000106
:010FEA000006
:010FEB000005
:010FEC000004
:010FED000003
:010FEE0003FF
:010FEF000100
:010FF00003FD
:010FF10001FE
:010FF20003FB
:010FF30003FA
:010FF40001FB
:010FF50000FB
:010FF60001F9
:010FF70001F8
:010FF80001F7
:010FF90000F7
:010FFA0000F6
:010FFB0001F4
:010FFC0001F3
:010FFD0000F3
:010FFE0000F2
:010FFF0000F1
:00000001FF
